{
  "contractName": "SuperERC721",
  "abi": [
    {
      "inputs": [
        {
          "internalType": "string",
          "name": "name",
          "type": "string"
        },
        {
          "internalType": "string",
          "name": "symbol",
          "type": "string"
        }
      ],
      "stateMutability": "nonpayable",
      "type": "constructor"
    },
    {
      "anonymous": false,
      "inputs": [
        {
          "indexed": true,
          "internalType": "address",
          "name": "owner",
          "type": "address"
        },
        {
          "indexed": true,
          "internalType": "address",
          "name": "approved",
          "type": "address"
        },
        {
          "indexed": true,
          "internalType": "uint256",
          "name": "tokenId",
          "type": "uint256"
        }
      ],
      "name": "Approval",
      "type": "event"
    },
    {
      "anonymous": false,
      "inputs": [
        {
          "indexed": true,
          "internalType": "address",
          "name": "owner",
          "type": "address"
        },
        {
          "indexed": true,
          "internalType": "address",
          "name": "operator",
          "type": "address"
        },
        {
          "indexed": false,
          "internalType": "bool",
          "name": "approved",
          "type": "bool"
        }
      ],
      "name": "ApprovalForAll",
      "type": "event"
    },
    {
      "anonymous": false,
      "inputs": [
        {
          "indexed": true,
          "internalType": "bytes32",
          "name": "role",
          "type": "bytes32"
        },
        {
          "indexed": true,
          "internalType": "bytes32",
          "name": "previousAdminRole",
          "type": "bytes32"
        },
        {
          "indexed": true,
          "internalType": "bytes32",
          "name": "newAdminRole",
          "type": "bytes32"
        }
      ],
      "name": "RoleAdminChanged",
      "type": "event"
    },
    {
      "anonymous": false,
      "inputs": [
        {
          "indexed": true,
          "internalType": "bytes32",
          "name": "role",
          "type": "bytes32"
        },
        {
          "indexed": true,
          "internalType": "address",
          "name": "account",
          "type": "address"
        },
        {
          "indexed": true,
          "internalType": "address",
          "name": "sender",
          "type": "address"
        }
      ],
      "name": "RoleGranted",
      "type": "event"
    },
    {
      "anonymous": false,
      "inputs": [
        {
          "indexed": true,
          "internalType": "bytes32",
          "name": "role",
          "type": "bytes32"
        },
        {
          "indexed": true,
          "internalType": "address",
          "name": "account",
          "type": "address"
        },
        {
          "indexed": true,
          "internalType": "address",
          "name": "sender",
          "type": "address"
        }
      ],
      "name": "RoleRevoked",
      "type": "event"
    },
    {
      "anonymous": false,
      "inputs": [
        {
          "indexed": true,
          "internalType": "address",
          "name": "from",
          "type": "address"
        },
        {
          "indexed": true,
          "internalType": "address",
          "name": "to",
          "type": "address"
        },
        {
          "indexed": true,
          "internalType": "uint256",
          "name": "tokenId",
          "type": "uint256"
        }
      ],
      "name": "Transfer",
      "type": "event"
    },
    {
      "inputs": [],
      "name": "DEFAULT_ADMIN_ROLE",
      "outputs": [
        {
          "internalType": "bytes32",
          "name": "",
          "type": "bytes32"
        }
      ],
      "stateMutability": "view",
      "type": "function"
    },
    {
      "inputs": [],
      "name": "MINTER_ROLE",
      "outputs": [
        {
          "internalType": "bytes32",
          "name": "",
          "type": "bytes32"
        }
      ],
      "stateMutability": "view",
      "type": "function"
    },
    {
      "inputs": [],
      "name": "TOKEN_URI",
      "outputs": [
        {
          "internalType": "string",
          "name": "",
          "type": "string"
        }
      ],
      "stateMutability": "view",
      "type": "function"
    },
    {
      "inputs": [
        {
          "internalType": "address",
          "name": "to",
          "type": "address"
        },
        {
          "internalType": "uint256",
          "name": "tokenId",
          "type": "uint256"
        }
      ],
      "name": "approve",
      "outputs": [],
      "stateMutability": "nonpayable",
      "type": "function"
    },
    {
      "inputs": [
        {
          "internalType": "address",
          "name": "owner",
          "type": "address"
        }
      ],
      "name": "balanceOf",
      "outputs": [
        {
          "internalType": "uint256",
          "name": "",
          "type": "uint256"
        }
      ],
      "stateMutability": "view",
      "type": "function"
    },
    {
      "inputs": [],
      "name": "baseURI",
      "outputs": [
        {
          "internalType": "string",
          "name": "",
          "type": "string"
        }
      ],
      "stateMutability": "view",
      "type": "function"
    },
    {
      "inputs": [
        {
          "internalType": "uint256",
          "name": "tokenId",
          "type": "uint256"
        }
      ],
      "name": "getApproved",
      "outputs": [
        {
          "internalType": "address",
          "name": "",
          "type": "address"
        }
      ],
      "stateMutability": "view",
      "type": "function"
    },
    {
      "inputs": [
        {
          "internalType": "bytes32",
          "name": "role",
          "type": "bytes32"
        }
      ],
      "name": "getRoleAdmin",
      "outputs": [
        {
          "internalType": "bytes32",
          "name": "",
          "type": "bytes32"
        }
      ],
      "stateMutability": "view",
      "type": "function"
    },
    {
      "inputs": [
        {
          "internalType": "bytes32",
          "name": "role",
          "type": "bytes32"
        },
        {
          "internalType": "uint256",
          "name": "index",
          "type": "uint256"
        }
      ],
      "name": "getRoleMember",
      "outputs": [
        {
          "internalType": "address",
          "name": "",
          "type": "address"
        }
      ],
      "stateMutability": "view",
      "type": "function"
    },
    {
      "inputs": [
        {
          "internalType": "bytes32",
          "name": "role",
          "type": "bytes32"
        }
      ],
      "name": "getRoleMemberCount",
      "outputs": [
        {
          "internalType": "uint256",
          "name": "",
          "type": "uint256"
        }
      ],
      "stateMutability": "view",
      "type": "function"
    },
    {
      "inputs": [
        {
          "internalType": "bytes32",
          "name": "role",
          "type": "bytes32"
        },
        {
          "internalType": "address",
          "name": "account",
          "type": "address"
        }
      ],
      "name": "grantRole",
      "outputs": [],
      "stateMutability": "nonpayable",
      "type": "function"
    },
    {
      "inputs": [
        {
          "internalType": "bytes32",
          "name": "role",
          "type": "bytes32"
        },
        {
          "internalType": "address",
          "name": "account",
          "type": "address"
        }
      ],
      "name": "hasRole",
      "outputs": [
        {
          "internalType": "bool",
          "name": "",
          "type": "bool"
        }
      ],
      "stateMutability": "view",
      "type": "function"
    },
    {
      "inputs": [
        {
          "internalType": "address",
          "name": "owner",
          "type": "address"
        },
        {
          "internalType": "address",
          "name": "operator",
          "type": "address"
        }
      ],
      "name": "isApprovedForAll",
      "outputs": [
        {
          "internalType": "bool",
          "name": "",
          "type": "bool"
        }
      ],
      "stateMutability": "view",
      "type": "function"
    },
    {
      "inputs": [],
      "name": "name",
      "outputs": [
        {
          "internalType": "string",
          "name": "",
          "type": "string"
        }
      ],
      "stateMutability": "view",
      "type": "function"
    },
    {
      "inputs": [
        {
          "internalType": "uint256",
          "name": "tokenId",
          "type": "uint256"
        }
      ],
      "name": "ownerOf",
      "outputs": [
        {
          "internalType": "address",
          "name": "",
          "type": "address"
        }
      ],
      "stateMutability": "view",
      "type": "function"
    },
    {
      "inputs": [
        {
          "internalType": "bytes32",
          "name": "role",
          "type": "bytes32"
        },
        {
          "internalType": "address",
          "name": "account",
          "type": "address"
        }
      ],
      "name": "renounceRole",
      "outputs": [],
      "stateMutability": "nonpayable",
      "type": "function"
    },
    {
      "inputs": [
        {
          "internalType": "bytes32",
          "name": "role",
          "type": "bytes32"
        },
        {
          "internalType": "address",
          "name": "account",
          "type": "address"
        }
      ],
      "name": "revokeRole",
      "outputs": [],
      "stateMutability": "nonpayable",
      "type": "function"
    },
    {
      "inputs": [
        {
          "internalType": "address",
          "name": "from",
          "type": "address"
        },
        {
          "internalType": "address",
          "name": "to",
          "type": "address"
        },
        {
          "internalType": "uint256",
          "name": "tokenId",
          "type": "uint256"
        }
      ],
      "name": "safeTransferFrom",
      "outputs": [],
      "stateMutability": "nonpayable",
      "type": "function"
    },
    {
      "inputs": [
        {
          "internalType": "address",
          "name": "from",
          "type": "address"
        },
        {
          "internalType": "address",
          "name": "to",
          "type": "address"
        },
        {
          "internalType": "uint256",
          "name": "tokenId",
          "type": "uint256"
        },
        {
          "internalType": "bytes",
          "name": "_data",
          "type": "bytes"
        }
      ],
      "name": "safeTransferFrom",
      "outputs": [],
      "stateMutability": "nonpayable",
      "type": "function"
    },
    {
      "inputs": [
        {
          "internalType": "address",
          "name": "operator",
          "type": "address"
        },
        {
          "internalType": "bool",
          "name": "approved",
          "type": "bool"
        }
      ],
      "name": "setApprovalForAll",
      "outputs": [],
      "stateMutability": "nonpayable",
      "type": "function"
    },
    {
      "inputs": [
        {
          "internalType": "bytes4",
          "name": "interfaceId",
          "type": "bytes4"
        }
      ],
      "name": "supportsInterface",
      "outputs": [
        {
          "internalType": "bool",
          "name": "",
          "type": "bool"
        }
      ],
      "stateMutability": "view",
      "type": "function"
    },
    {
      "inputs": [],
      "name": "symbol",
      "outputs": [
        {
          "internalType": "string",
          "name": "",
          "type": "string"
        }
      ],
      "stateMutability": "view",
      "type": "function"
    },
    {
      "inputs": [
        {
          "internalType": "uint256",
          "name": "index",
          "type": "uint256"
        }
      ],
      "name": "tokenByIndex",
      "outputs": [
        {
          "internalType": "uint256",
          "name": "",
          "type": "uint256"
        }
      ],
      "stateMutability": "view",
      "type": "function"
    },
    {
      "inputs": [
        {
          "internalType": "address",
          "name": "owner",
          "type": "address"
        },
        {
          "internalType": "uint256",
          "name": "index",
          "type": "uint256"
        }
      ],
      "name": "tokenOfOwnerByIndex",
      "outputs": [
        {
          "internalType": "uint256",
          "name": "",
          "type": "uint256"
        }
      ],
      "stateMutability": "view",
      "type": "function"
    },
    {
      "inputs": [],
      "name": "totalSupply",
      "outputs": [
        {
          "internalType": "uint256",
          "name": "",
          "type": "uint256"
        }
      ],
      "stateMutability": "view",
      "type": "function"
    },
    {
      "inputs": [
        {
          "internalType": "address",
          "name": "from",
          "type": "address"
        },
        {
          "internalType": "address",
          "name": "to",
          "type": "address"
        },
        {
          "internalType": "uint256",
          "name": "tokenId",
          "type": "uint256"
        }
      ],
      "name": "transferFrom",
      "outputs": [],
      "stateMutability": "nonpayable",
      "type": "function"
    },
    {
      "inputs": [
        {
          "internalType": "address",
          "name": "to",
          "type": "address"
        }
      ],
      "name": "mint",
      "outputs": [
        {
          "internalType": "uint256",
          "name": "tokenId",
          "type": "uint256"
        }
      ],
      "stateMutability": "nonpayable",
      "type": "function"
    },
    {
      "inputs": [
        {
          "internalType": "address",
          "name": "to",
          "type": "address"
        },
        {
          "internalType": "uint256",
          "name": "howMany",
          "type": "uint256"
        }
      ],
      "name": "multiMint",
      "outputs": [],
      "stateMutability": "nonpayable",
      "type": "function"
    },
    {
      "inputs": [
        {
          "internalType": "address[]",
          "name": "to",
          "type": "address[]"
        },
        {
          "internalType": "uint256[]",
          "name": "tokensIds",
          "type": "uint256[]"
        }
      ],
      "name": "multiSend",
      "outputs": [],
      "stateMutability": "nonpayable",
      "type": "function"
    },
    {
      "inputs": [
        {
          "internalType": "uint256",
          "name": "tokenId",
          "type": "uint256"
        }
      ],
      "name": "tokenURI",
      "outputs": [
        {
          "internalType": "string",
          "name": "",
          "type": "string"
        }
      ],
      "stateMutability": "view",
      "type": "function"
    }
  ],
  "bytecode": "0x60806040523480156200001157600080fd5b50604051620038f0380380620038f08339818101604052810190620000379190620004b2565b8181620000516301ffc9a760e01b620000ea60201b60201c565b8160069080519060200190620000699291906200038a565b508060079080519060200190620000829291906200038a565b506200009b6380ac58cd60e01b620000ea60201b60201c565b620000b3635b5e139f60e01b620000ea60201b60201c565b620000cb63780e9d6360e01b620000ea60201b60201c565b5050620000e26000801b33620001f360201b60201c565b5050620005c4565b63ffffffff60e01b817bffffffffffffffffffffffffffffffffffffffffffffffffffffffff1916141562000187576040517f08c379a000000000000000000000000000000000000000000000000000000000815260040180806020018281038252601c8152602001807f4552433136353a20696e76616c696420696e746572666163652069640000000081525060200191505060405180910390fd5b6001600080837bffffffffffffffffffffffffffffffffffffffffffffffffffffffff19167bffffffffffffffffffffffffffffffffffffffffffffffffffffffff1916815260200190815260200160002060006101000a81548160ff02191690831515021790555050565b6200020582826200020960201b60201c565b5050565b6200023881600a6000858152602001908152602001600020600001620002ad60201b620013aa1790919060201c565b15620002a9576200024e620002e560201b60201c565b73ffffffffffffffffffffffffffffffffffffffff168173ffffffffffffffffffffffffffffffffffffffff16837f2f8788117e7eff1d82e926ec794901d17c78024a50270940304540a733656f0d60405160405180910390a45b5050565b6000620002dd836000018373ffffffffffffffffffffffffffffffffffffffff1660001b620002ed60201b60201c565b905092915050565b600033905090565b60006200030183836200036760201b60201c565b6200035c57826000018290806001815401808255809150506001900390600052602060002001600090919091909150558260000180549050836001016000848152602001908152602001600020819055506001905062000361565b600090505b92915050565b600080836001016000848152602001908152602001600020541415905092915050565b828054600181600116156101000203166002900490600052602060002090601f016020900481019282620003c257600085556200040e565b82601f10620003dd57805160ff19168380011785556200040e565b828001600101855582156200040e579182015b828111156200040d578251825591602001919060010190620003f0565b5b5090506200041d919062000421565b5090565b5b808211156200043c57600081600090555060010162000422565b5090565b600062000457620004518462000559565b62000525565b9050828152602081018484840111156200047057600080fd5b6200047d8482856200058c565b509392505050565b600082601f8301126200049757600080fd5b8151620004a984826020860162000440565b91505092915050565b60008060408385031215620004c657600080fd5b600083015167ffffffffffffffff811115620004e157600080fd5b620004ef8582860162000485565b925050602083015167ffffffffffffffff8111156200050d57600080fd5b6200051b8582860162000485565b9150509250929050565b6000604051905081810181811067ffffffffffffffff821117156200054f576200054e620005c2565b5b8060405250919050565b600067ffffffffffffffff821115620005775762000576620005c2565b5b601f19601f8301169050602081019050919050565b60005b83811015620005ac5780820151818401526020810190506200058f565b83811115620005bc576000848401525b50505050565bfe5b61331c80620005d46000396000f3fe608060405234801561001057600080fd5b50600436106101da5760003560e01c80636c0360eb11610104578063a22cb465116100a2578063ca15c87311610071578063ca15c8731461059f578063d5391393146105cf578063d547741f146105ed578063e985e9c514610609576101da565b8063a22cb4651461051b578063b88d4fde14610537578063bb4c9f0b14610553578063c87b56dd1461056f576101da565b80639010d07c116100de5780639010d07c1461047f57806391d14854146104af57806395d89b41146104df578063a217fddf146104fd576101da565b80636c0360eb1461041357806370a082311461043157806378ce903514610461576101da565b80632649d62e1161017c57806342842e0e1161014b57806342842e0e146103675780634f6ccce7146103835780636352211e146103b35780636a627842146103e3576101da565b80632649d62e146102e35780632f2ff15d146102ff5780632f745c591461031b57806336568abe1461034b576101da565b8063095ea7b3116101b8578063095ea7b31461025d57806318160ddd1461027957806323b872dd14610297578063248a9ca3146102b3576101da565b806301ffc9a7146101df57806306fdde031461020f578063081812fc1461022d575b600080fd5b6101f960048036038101906101f49190612b5e565b610639565b6040516102069190612d4c565b60405180910390f35b6102176106a0565b6040516102249190612d82565b60405180910390f35b61024760048036038101906102429190612b87565b610742565b6040516102549190612d31565b60405180910390f35b61027760048036038101906102729190612a15565b6107dd565b005b610281610921565b60405161028e9190612e04565b60405180910390f35b6102b160048036038101906102ac919061290f565b610932565b005b6102cd60048036038101906102c89190612abd565b6109a8565b6040516102da9190612d67565b60405180910390f35b6102fd60048036038101906102f89190612a15565b6109c8565b005b61031960048036038101906103149190612ae6565b6109ef565b005b61033560048036038101906103309190612a15565b610a79565b6040516103429190612e04565b60405180910390f35b61036560048036038101906103609190612ae6565b610ad4565b005b610381600480360381019061037c919061290f565b610b6d565b005b61039d60048036038101906103989190612b87565b610b8d565b6040516103aa9190612e04565b60405180910390f35b6103cd60048036038101906103c89190612b87565b610bb0565b6040516103da9190612d31565b60405180910390f35b6103fd60048036038101906103f891906128aa565b610be7565b60405161040a9190612e04565b60405180910390f35b61041b610c88565b6040516104289190612d82565b60405180910390f35b61044b600480360381019061044691906128aa565b610d2a565b6040516104589190612e04565b60405180910390f35b610469610dff565b6040516104769190612d82565b60405180910390f35b61049960048036038101906104949190612b22565b610e12565b6040516104a69190612d31565b60405180910390f35b6104c960048036038101906104c49190612ae6565b610e44565b6040516104d69190612d4c565b60405180910390f35b6104e7610e76565b6040516104f49190612d82565b60405180910390f35b610505610f18565b6040516105129190612d67565b60405180910390f35b610535600480360381019061053091906129d9565b610f1f565b005b610551600480360381019061054c919061295e565b6110d5565b005b61056d60048036038101906105689190612a51565b61114d565b005b61058960048036038101906105849190612b87565b6111e0565b6040516105969190612d82565b60405180910390f35b6105b960048036038101906105b49190612abd565b611241565b6040516105c69190612e04565b60405180910390f35b6105d7611268565b6040516105e49190612d67565b60405180910390f35b61060760048036038101906106029190612ae6565b61128c565b005b610623600480360381019061061e91906128d3565b611316565b6040516106309190612d4c565b60405180910390f35b6000806000837bffffffffffffffffffffffffffffffffffffffffffffffffffffffff19167bffffffffffffffffffffffffffffffffffffffffffffffffffffffff1916815260200190815260200160002060009054906101000a900460ff169050919050565b606060068054600181600116156101000203166002900480601f0160208091040260200160405190810160405280929190818152602001828054600181600116156101000203166002900480156107385780601f1061070d57610100808354040283529160200191610738565b820191906000526020600020905b81548152906001019060200180831161071b57829003601f168201915b5050505050905090565b600061074d826113da565b6107a2576040517f08c379a000000000000000000000000000000000000000000000000000000000815260040180806020018281038252602c815260200180613211602c913960400191505060405180910390fd5b6004600083815260200190815260200160002060009054906101000a900473ffffffffffffffffffffffffffffffffffffffff169050919050565b60006107e882610bb0565b90508073ffffffffffffffffffffffffffffffffffffffff168373ffffffffffffffffffffffffffffffffffffffff16141561086f576040517f08c379a00000000000000000000000000000000000000000000000000000000081526004018080602001828103825260218152602001806132666021913960400191505060405180910390fd5b8073ffffffffffffffffffffffffffffffffffffffff1661088e6113f7565b73ffffffffffffffffffffffffffffffffffffffff1614806108bd57506108bc816108b76113f7565b611316565b5b610912576040517f08c379a00000000000000000000000000000000000000000000000000000000081526004018080602001828103825260388152602001806131646038913960400191505060405180910390fd5b61091c83836113ff565b505050565b600061092d60026114b8565b905090565b61094361093d6113f7565b826114cd565b610998576040517f08c379a00000000000000000000000000000000000000000000000000000000081526004018080602001828103825260318152602001806132876031913960400191505060405180910390fd5b6109a38383836115c1565b505050565b6000600a6000838152602001908152602001600020600201549050919050565b60005b818110156109ea576109dc83610be7565b5080806001019150506109cb565b505050565b610a16600a600084815260200190815260200160002060020154610a116113f7565b610e44565b610a6b576040517f08c379a000000000000000000000000000000000000000000000000000000000815260040180806020018281038252602f81526020018061305d602f913960400191505060405180910390fd5b610a758282611804565b5050565b6000610acc82600160008673ffffffffffffffffffffffffffffffffffffffff1673ffffffffffffffffffffffffffffffffffffffff16815260200190815260200160002061189890919063ffffffff16565b905092915050565b610adc6113f7565b73ffffffffffffffffffffffffffffffffffffffff168173ffffffffffffffffffffffffffffffffffffffff1614610b5f576040517f08c379a000000000000000000000000000000000000000000000000000000000815260040180806020018281038252602f8152602001806132b8602f913960400191505060405180910390fd5b610b6982826118b2565b5050565b610b88838383604051806020016040528060008152506110d5565b505050565b600080610ba483600261194690919063ffffffff16565b50905080915050919050565b6000610be0826040518060600160405280602981526020016131c66029913960026119729092919063ffffffff16565b9050919050565b6000610bf66000801b33610e44565b80610c275750610c267f9f2df0fed2c77648de5860a4cc508cd0818c85b8b8a1ab4ceeef8d981c8956a633610e44565b5b610c66576040517f08c379a0000000000000000000000000000000000000000000000000000000008152600401610c5d90612da4565b60405180910390fd5b610c70600b611991565b610c8382610c7e600b6119a7565b6119b5565b919050565b606060098054600181600116156101000203166002900480601f016020809104026020016040519081016040528092919081815260200182805460018160011615610100020316600290048015610d205780601f10610cf557610100808354040283529160200191610d20565b820191906000526020600020905b815481529060010190602001808311610d0357829003601f168201915b5050505050905090565b60008073ffffffffffffffffffffffffffffffffffffffff168273ffffffffffffffffffffffffffffffffffffffff161415610db1576040517f08c379a000000000000000000000000000000000000000000000000000000000815260040180806020018281038252602a81526020018061319c602a913960400191505060405180910390fd5b610df8600160008473ffffffffffffffffffffffffffffffffffffffff1673ffffffffffffffffffffffffffffffffffffffff168152602001908152602001600020611ba9565b9050919050565b6040518060200160405280600081525081565b6000610e3c82600a6000868152602001908152602001600020600001611bbe90919063ffffffff16565b905092915050565b6000610e6e82600a6000868152602001908152602001600020600001611bd890919063ffffffff16565b905092915050565b606060078054600181600116156101000203166002900480601f016020809104026020016040519081016040528092919081815260200182805460018160011615610100020316600290048015610f0e5780601f10610ee357610100808354040283529160200191610f0e565b820191906000526020600020905b815481529060010190602001808311610ef157829003601f168201915b5050505050905090565b6000801b81565b610f276113f7565b73ffffffffffffffffffffffffffffffffffffffff168273ffffffffffffffffffffffffffffffffffffffff161415610fc8576040517f08c379a00000000000000000000000000000000000000000000000000000000081526004018080602001828103825260198152602001807f4552433732313a20617070726f766520746f2063616c6c65720000000000000081525060200191505060405180910390fd5b8060056000610fd56113f7565b73ffffffffffffffffffffffffffffffffffffffff1673ffffffffffffffffffffffffffffffffffffffff16815260200190815260200160002060008473ffffffffffffffffffffffffffffffffffffffff1673ffffffffffffffffffffffffffffffffffffffff16815260200190815260200160002060006101000a81548160ff0219169083151502179055508173ffffffffffffffffffffffffffffffffffffffff166110826113f7565b73ffffffffffffffffffffffffffffffffffffffff167f17307eab39ab6107e8899845ad3d59bd9653f200f220920489ca2b5937696c318360405180821515815260200191505060405180910390a35050565b6110e66110e06113f7565b836114cd565b61113b576040517f08c379a00000000000000000000000000000000000000000000000000000000081526004018080602001828103825260318152602001806132876031913960400191505060405180910390fd5b61114784848484611c08565b50505050565b8051825114611191576040517f08c379a000000000000000000000000000000000000000000000000000000000815260040161118890612dc4565b60405180910390fd5b60005b81518110156111db576111ce338483815181106111ad57fe5b60200260200101518484815181106111c157fe5b6020026020010151610b6d565b8080600101915050611194565b505050565b60606111eb826113da565b61122a576040517f08c379a000000000000000000000000000000000000000000000000000000000815260040161122190612de4565b60405180910390fd5b604051806020016040528060008152509050919050565b6000611261600a6000848152602001908152602001600020600001611c7a565b9050919050565b7f9f2df0fed2c77648de5860a4cc508cd0818c85b8b8a1ab4ceeef8d981c8956a681565b6112b3600a6000848152602001908152602001600020600201546112ae6113f7565b610e44565b611308576040517f08c379a00000000000000000000000000000000000000000000000000000000081526004018080602001828103825260308152602001806131346030913960400191505060405180910390fd5b61131282826118b2565b5050565b6000600560008473ffffffffffffffffffffffffffffffffffffffff1673ffffffffffffffffffffffffffffffffffffffff16815260200190815260200160002060008373ffffffffffffffffffffffffffffffffffffffff1673ffffffffffffffffffffffffffffffffffffffff16815260200190815260200160002060009054906101000a900460ff16905092915050565b60006113d2836000018373ffffffffffffffffffffffffffffffffffffffff1660001b611c8f565b905092915050565b60006113f0826002611cff90919063ffffffff16565b9050919050565b600033905090565b816004600083815260200190815260200160002060006101000a81548173ffffffffffffffffffffffffffffffffffffffff021916908373ffffffffffffffffffffffffffffffffffffffff160217905550808273ffffffffffffffffffffffffffffffffffffffff1661147283610bb0565b73ffffffffffffffffffffffffffffffffffffffff167f8c5be1e5ebec7d5bd14f71427d1e84f3dd0314c0f7b2291e5b200ac8c7c3b92560405160405180910390a45050565b60006114c682600001611d19565b9050919050565b60006114d8826113da565b61152d576040517f08c379a000000000000000000000000000000000000000000000000000000000815260040180806020018281038252602c815260200180613108602c913960400191505060405180910390fd5b600061153883610bb0565b90508073ffffffffffffffffffffffffffffffffffffffff168473ffffffffffffffffffffffffffffffffffffffff1614806115a757508373ffffffffffffffffffffffffffffffffffffffff1661158f84610742565b73ffffffffffffffffffffffffffffffffffffffff16145b806115b857506115b78185611316565b5b91505092915050565b8273ffffffffffffffffffffffffffffffffffffffff166115e182610bb0565b73ffffffffffffffffffffffffffffffffffffffff161461164d576040517f08c379a000000000000000000000000000000000000000000000000000000000815260040180806020018281038252602981526020018061323d6029913960400191505060405180910390fd5b600073ffffffffffffffffffffffffffffffffffffffff168273ffffffffffffffffffffffffffffffffffffffff1614156116d3576040517f08c379a00000000000000000000000000000000000000000000000000000000081526004018080602001828103825260248152602001806130be6024913960400191505060405180910390fd5b6116de838383611d2a565b6116e96000826113ff565b61173a81600160008673ffffffffffffffffffffffffffffffffffffffff1673ffffffffffffffffffffffffffffffffffffffff168152602001908152602001600020611d2f90919063ffffffff16565b5061178c81600160008573ffffffffffffffffffffffffffffffffffffffff1673ffffffffffffffffffffffffffffffffffffffff168152602001908152602001600020611d4990919063ffffffff16565b506117a381836002611d639092919063ffffffff16565b50808273ffffffffffffffffffffffffffffffffffffffff168473ffffffffffffffffffffffffffffffffffffffff167fddf252ad1be2c89b69c2b068fc378daa952ba7f163c4a11628f55a4df523b3ef60405160405180910390a4505050565b61182c81600a60008581526020019081526020016000206000016113aa90919063ffffffff16565b15611894576118396113f7565b73ffffffffffffffffffffffffffffffffffffffff168173ffffffffffffffffffffffffffffffffffffffff16837f2f8788117e7eff1d82e926ec794901d17c78024a50270940304540a733656f0d60405160405180910390a45b5050565b60006118a78360000183611d98565b60001c905092915050565b6118da81600a6000858152602001908152602001600020600001611e1b90919063ffffffff16565b15611942576118e76113f7565b73ffffffffffffffffffffffffffffffffffffffff168173ffffffffffffffffffffffffffffffffffffffff16837ff6391f5c32d9c69d2a47ea670b442974b53935d1edc7fd64eb21e047a839171b60405160405180910390a45b5050565b6000806000806119598660000186611e4b565b915091508160001c8160001c9350935050509250929050565b6000611985846000018460001b84611ee4565b60001c90509392505050565b6001816000016000828254019250508190555050565b600081600001549050919050565b600073ffffffffffffffffffffffffffffffffffffffff168273ffffffffffffffffffffffffffffffffffffffff161415611a58576040517f08c379a00000000000000000000000000000000000000000000000000000000081526004018080602001828103825260208152602001807f4552433732313a206d696e7420746f20746865207a65726f206164647265737381525060200191505060405180910390fd5b611a61816113da565b15611ad4576040517f08c379a000000000000000000000000000000000000000000000000000000000815260040180806020018281038252601c8152602001807f4552433732313a20746f6b656e20616c7265616479206d696e7465640000000081525060200191505060405180910390fd5b611ae060008383611d2a565b611b3181600160008573ffffffffffffffffffffffffffffffffffffffff1673ffffffffffffffffffffffffffffffffffffffff168152602001908152602001600020611d4990919063ffffffff16565b50611b4881836002611d639092919063ffffffff16565b50808273ffffffffffffffffffffffffffffffffffffffff16600073ffffffffffffffffffffffffffffffffffffffff167fddf252ad1be2c89b69c2b068fc378daa952ba7f163c4a11628f55a4df523b3ef60405160405180910390a45050565b6000611bb782600001611fda565b9050919050565b6000611bcd8360000183611d98565b60001c905092915050565b6000611c00836000018373ffffffffffffffffffffffffffffffffffffffff1660001b611feb565b905092915050565b611c138484846115c1565b611c1f8484848461200e565b611c74576040517f08c379a000000000000000000000000000000000000000000000000000000000815260040180806020018281038252603281526020018061308c6032913960400191505060405180910390fd5b50505050565b6000611c8882600001611fda565b9050919050565b6000611c9b8383611feb565b611cf4578260000182908060018154018082558091505060019003906000526020600020016000909190919091505582600001805490508360010160008481526020019081526020016000208190555060019050611cf9565b600090505b92915050565b6000611d11836000018360001b612227565b905092915050565b600081600001805490509050919050565b505050565b6000611d41836000018360001b61224a565b905092915050565b6000611d5b836000018360001b611c8f565b905092915050565b6000611d8f846000018460001b8473ffffffffffffffffffffffffffffffffffffffff1660001b612332565b90509392505050565b600081836000018054905011611df9576040517f08c379a000000000000000000000000000000000000000000000000000000000815260040180806020018281038252602281526020018061303b6022913960400191505060405180910390fd5b826000018281548110611e0857fe5b9060005260206000200154905092915050565b6000611e43836000018373ffffffffffffffffffffffffffffffffffffffff1660001b61224a565b905092915050565b60008082846000018054905011611ead576040517f08c379a00000000000000000000000000000000000000000000000000000000081526004018080602001828103825260228152602001806131ef6022913960400191505060405180910390fd5b6000846000018481548110611ebe57fe5b906000526020600020906002020190508060000154816001015492509250509250929050565b60008084600101600085815260200190815260200160002054905060008114158390611fab576040517f08c379a00000000000000000000000000000000000000000000000000000000081526004018080602001828103825283818151815260200191508051906020019080838360005b83811015611f70578082015181840152602081019050611f55565b50505050905090810190601f168015611f9d5780820380516001836020036101000a031916815260200191505b509250505060405180910390fd5b50846000016001820381548110611fbe57fe5b9060005260206000209060020201600101549150509392505050565b600081600001805490509050919050565b600080836001016000848152602001908152602001600020541415905092915050565b600061202f8473ffffffffffffffffffffffffffffffffffffffff1661240e565b61203c576001905061221f565b60006121a663150b7a0260e01b6120516113f7565b888787604051602401808573ffffffffffffffffffffffffffffffffffffffff1681526020018473ffffffffffffffffffffffffffffffffffffffff16815260200183815260200180602001828103825283818151815260200191508051906020019080838360005b838110156120d55780820151818401526020810190506120ba565b50505050905090810190601f1680156121025780820380516001836020036101000a031916815260200191505b5095505050505050604051602081830303815290604052907bffffffffffffffffffffffffffffffffffffffffffffffffffffffff19166020820180517bffffffffffffffffffffffffffffffffffffffffffffffffffffffff838183161783525050505060405180606001604052806032815260200161308c603291398773ffffffffffffffffffffffffffffffffffffffff166124219092919063ffffffff16565b905060008180602001905160208110156121bf57600080fd5b8101908080519060200190929190505050905063150b7a0260e01b7bffffffffffffffffffffffffffffffffffffffffffffffffffffffff1916817bffffffffffffffffffffffffffffffffffffffffffffffffffffffff191614925050505b949350505050565b600080836001016000848152602001908152602001600020541415905092915050565b60008083600101600084815260200190815260200160002054905060008114612326576000600182039050600060018660000180549050039050600086600001828154811061229557fe5b90600052602060002001549050808760000184815481106122b257fe5b90600052602060002001819055506001830187600101600083815260200190815260200160002081905550866000018054806122ea57fe5b6001900381819060005260206000200160009055905586600101600087815260200190815260200160002060009055600194505050505061232c565b60009150505b92915050565b60008084600101600085815260200190815260200160002054905060008114156123d957846000016040518060400160405280868152602001858152509080600181540180825580915050600190039060005260206000209060020201600090919091909150600082015181600001556020820151816001015550508460000180549050856001016000868152602001908152602001600020819055506001915050612407565b828560000160018303815481106123ec57fe5b90600052602060002090600202016001018190555060009150505b9392505050565b600080823b905060008111915050919050565b60606124308484600085612439565b90509392505050565b606082471015612494576040517f08c379a00000000000000000000000000000000000000000000000000000000081526004018080602001828103825260268152602001806130e26026913960400191505060405180910390fd5b61249d8561240e565b61250f576040517f08c379a000000000000000000000000000000000000000000000000000000000815260040180806020018281038252601d8152602001807f416464726573733a2063616c6c20746f206e6f6e2d636f6e747261637400000081525060200191505060405180910390fd5b6000808673ffffffffffffffffffffffffffffffffffffffff1685876040518082805190602001908083835b6020831061255e578051825260208201915060208101905060208303925061253b565b6001836020036101000a03801982511681845116808217855250505050505090500191505060006040518083038185875af1925050503d80600081146125c0576040519150601f19603f3d011682016040523d82523d6000602084013e6125c5565b606091505b50915091506125d58282866125e1565b92505050949350505050565b606083156125f1578290506126a6565b6000835111156126045782518084602001fd5b816040517f08c379a00000000000000000000000000000000000000000000000000000000081526004018080602001828103825283818151815260200191508051906020019080838360005b8381101561266b578082015181840152602081019050612650565b50505050905090810190601f1680156126985780820380516001836020036101000a031916815260200191505b509250505060405180910390fd5b9392505050565b60006126c06126bb84612e50565b612e1f565b905080838252602082019050828560208602820111156126df57600080fd5b60005b8581101561270f57816126f588826127c3565b8452602084019350602083019250506001810190506126e2565b5050509392505050565b600061272c61272784612e7c565b612e1f565b9050808382526020820190508285602086028201111561274b57600080fd5b60005b8581101561277b57816127618882612895565b84526020840193506020830192505060018101905061274e565b5050509392505050565b600061279861279384612ea8565b612e1f565b9050828152602081018484840111156127b057600080fd5b6127bb848285612f72565b509392505050565b6000813590506127d281612fc7565b92915050565b600082601f8301126127e957600080fd5b81356127f98482602086016126ad565b91505092915050565b600082601f83011261281357600080fd5b8135612823848260208601612719565b91505092915050565b60008135905061283b81612fde565b92915050565b60008135905061285081612ff5565b92915050565b6000813590506128658161300c565b92915050565b600082601f83011261287c57600080fd5b813561288c848260208601612785565b91505092915050565b6000813590506128a481613023565b92915050565b6000602082840312156128bc57600080fd5b60006128ca848285016127c3565b91505092915050565b600080604083850312156128e657600080fd5b60006128f4858286016127c3565b9250506020612905858286016127c3565b9150509250929050565b60008060006060848603121561292457600080fd5b6000612932868287016127c3565b9350506020612943868287016127c3565b925050604061295486828701612895565b9150509250925092565b6000806000806080858703121561297457600080fd5b6000612982878288016127c3565b9450506020612993878288016127c3565b93505060406129a487828801612895565b925050606085013567ffffffffffffffff8111156129c157600080fd5b6129cd8782880161286b565b91505092959194509250565b600080604083850312156129ec57600080fd5b60006129fa858286016127c3565b9250506020612a0b8582860161282c565b9150509250929050565b60008060408385031215612a2857600080fd5b6000612a36858286016127c3565b9250506020612a4785828601612895565b9150509250929050565b60008060408385031215612a6457600080fd5b600083013567ffffffffffffffff811115612a7e57600080fd5b612a8a858286016127d8565b925050602083013567ffffffffffffffff811115612aa757600080fd5b612ab385828601612802565b9150509250929050565b600060208284031215612acf57600080fd5b6000612add84828501612841565b91505092915050565b60008060408385031215612af957600080fd5b6000612b0785828601612841565b9250506020612b18858286016127c3565b9150509250929050565b60008060408385031215612b3557600080fd5b6000612b4385828601612841565b9250506020612b5485828601612895565b9150509250929050565b600060208284031215612b7057600080fd5b6000612b7e84828501612856565b91505092915050565b600060208284031215612b9957600080fd5b6000612ba784828501612895565b91505092915050565b612bb981612ef4565b82525050565b612bc881612f06565b82525050565b612bd781612f12565b82525050565b6000612be882612ed8565b612bf28185612ee3565b9350612c02818560208601612f81565b612c0b81612fb6565b840191505092915050565b6000612c23601683612ee3565b91507f4e6f742061206d696e74657220726f6c652075736572000000000000000000006000830152602082019050919050565b6000612c63602b83612ee3565b91507f436f756e74206f662061646472657373657320616e6420746f6b656e4964732060008301527f646f6e2774206d617463680000000000000000000000000000000000000000006020830152604082019050919050565b6000612cc9602f83612ee3565b91507f4552433732314d657461646174613a2055524920717565727920666f72206e6f60008301527f6e6578697374656e7420746f6b656e00000000000000000000000000000000006020830152604082019050919050565b612d2b81612f68565b82525050565b6000602082019050612d466000830184612bb0565b92915050565b6000602082019050612d616000830184612bbf565b92915050565b6000602082019050612d7c6000830184612bce565b92915050565b60006020820190508181036000830152612d9c8184612bdd565b905092915050565b60006020820190508181036000830152612dbd81612c16565b9050919050565b60006020820190508181036000830152612ddd81612c56565b9050919050565b60006020820190508181036000830152612dfd81612cbc565b9050919050565b6000602082019050612e196000830184612d22565b92915050565b6000604051905081810181811067ffffffffffffffff82111715612e4657612e45612fb4565b5b8060405250919050565b600067ffffffffffffffff821115612e6b57612e6a612fb4565b5b602082029050602081019050919050565b600067ffffffffffffffff821115612e9757612e96612fb4565b5b602082029050602081019050919050565b600067ffffffffffffffff821115612ec357612ec2612fb4565b5b601f19601f8301169050602081019050919050565b600081519050919050565b600082825260208201905092915050565b6000612eff82612f48565b9050919050565b60008115159050919050565b6000819050919050565b60007fffffffff0000000000000000000000000000000000000000000000000000000082169050919050565b600073ffffffffffffffffffffffffffffffffffffffff82169050919050565b6000819050919050565b82818337600083830152505050565b60005b83811015612f9f578082015181840152602081019050612f84565b83811115612fae576000848401525b50505050565bfe5b6000601f19601f8301169050919050565b612fd081612ef4565b8114612fdb57600080fd5b50565b612fe781612f06565b8114612ff257600080fd5b50565b612ffe81612f12565b811461300957600080fd5b50565b61301581612f1c565b811461302057600080fd5b50565b61302c81612f68565b811461303757600080fd5b5056fe456e756d657261626c655365743a20696e646578206f7574206f6620626f756e6473416363657373436f6e74726f6c3a2073656e646572206d75737420626520616e2061646d696e20746f206772616e744552433732313a207472616e7366657220746f206e6f6e20455243373231526563656976657220696d706c656d656e7465724552433732313a207472616e7366657220746f20746865207a65726f2061646472657373416464726573733a20696e73756666696369656e742062616c616e636520666f722063616c6c4552433732313a206f70657261746f7220717565727920666f72206e6f6e6578697374656e7420746f6b656e416363657373436f6e74726f6c3a2073656e646572206d75737420626520616e2061646d696e20746f207265766f6b654552433732313a20617070726f76652063616c6c6572206973206e6f74206f776e6572206e6f7220617070726f76656420666f7220616c6c4552433732313a2062616c616e636520717565727920666f7220746865207a65726f20616464726573734552433732313a206f776e657220717565727920666f72206e6f6e6578697374656e7420746f6b656e456e756d657261626c654d61703a20696e646578206f7574206f6620626f756e64734552433732313a20617070726f76656420717565727920666f72206e6f6e6578697374656e7420746f6b656e4552433732313a207472616e73666572206f6620746f6b656e2074686174206973206e6f74206f776e4552433732313a20617070726f76616c20746f2063757272656e74206f776e65724552433732313a207472616e736665722063616c6c6572206973206e6f74206f776e6572206e6f7220617070726f766564416363657373436f6e74726f6c3a2063616e206f6e6c792072656e6f756e636520726f6c657320666f722073656c66a2646970667358221220f4e268340206ad384f6177bc1dc622c2a411207ec79222baeaf97fdf57fb6c8364736f6c63430007060033",
  "immutableReferences": {},
  "source": "// SPDX-License-Identifier: MIT\npragma solidity 0.7.6;\npragma experimental ABIEncoderV2;\n\nimport \"@openzeppelin/contracts/token/ERC721/ERC721.sol\";\nimport \"@openzeppelin/contracts/utils/Counters.sol\";\nimport \"@openzeppelin/contracts/access/AccessControl.sol\";\n\ncontract SuperERC721 is ERC721, AccessControl {\n\n    bytes32 public constant MINTER_ROLE = keccak256(\"MINTER_ROLE\");\n    string public constant TOKEN_URI = \"\";\n\n    using Counters for Counters.Counter;\n    Counters.Counter private _tokenIds;\n\n    constructor(string memory name, string memory symbol) ERC721 (name, symbol)  public {\n        _setupRole(DEFAULT_ADMIN_ROLE, msg.sender); \n    }\n\n    function mint(address to) public returns(uint256 tokenId) {\n        require(\n            hasRole(DEFAULT_ADMIN_ROLE, msg.sender) || \n            hasRole(MINTER_ROLE, msg.sender),\n            \"Not a minter role user\"\n        );\n\n        _tokenIds.increment();\n        _mint(to, _tokenIds.current());\n    }\n\n    function multiMint(address to, uint256 howMany) public {\n        for(uint256 i = 0; i < howMany; i++) {\n            mint(to);\n        }\n    }\n\n    function multiSend(address[] memory to, uint256[] memory tokensIds) public {\n        require(to.length == tokensIds.length, \"Count of addresses and tokenIds don't match\");\n        for(uint256 i = 0; i < tokensIds.length; i++) {\n            safeTransferFrom(msg.sender, to[i], tokensIds[i]);\n        }\n    }\n\n    function tokenURI(uint256 tokenId) public view override returns (string memory) {\n        require(_exists(tokenId), \"ERC721Metadata: URI query for nonexistent token\");\n        return TOKEN_URI;\n    }\n}\n",
  "sourcePath": "/Users/logic/ethereum/superfluid/auction-participation/contracts/SuperERC721.sol",
  "compiler": {
    "name": "solc",
    "version": "0.7.6+commit.7338295f.Emscripten.clang"
  },
  "schemaVersion": "3.3.4",
  "updatedAt": "2021-04-29T09:49:08.552Z",
  "devdoc": {
    "kind": "dev",
    "methods": {
      "approve(address,uint256)": {
        "details": "See {IERC721-approve}."
      },
      "balanceOf(address)": {
        "details": "See {IERC721-balanceOf}."
      },
      "baseURI()": {
        "details": "Returns the base URI set via {_setBaseURI}. This will be automatically added as a prefix in {tokenURI} to each token's URI, or to the token ID if no specific URI is set for that token ID."
      },
      "getApproved(uint256)": {
        "details": "See {IERC721-getApproved}."
      },
      "getRoleAdmin(bytes32)": {
        "details": "Returns the admin role that controls `role`. See {grantRole} and {revokeRole}. To change a role's admin, use {_setRoleAdmin}."
      },
      "getRoleMember(bytes32,uint256)": {
        "details": "Returns one of the accounts that have `role`. `index` must be a value between 0 and {getRoleMemberCount}, non-inclusive. Role bearers are not sorted in any particular way, and their ordering may change at any point. WARNING: When using {getRoleMember} and {getRoleMemberCount}, make sure you perform all queries on the same block. See the following https://forum.openzeppelin.com/t/iterating-over-elements-on-enumerableset-in-openzeppelin-contracts/2296[forum post] for more information."
      },
      "getRoleMemberCount(bytes32)": {
        "details": "Returns the number of accounts that have `role`. Can be used together with {getRoleMember} to enumerate all bearers of a role."
      },
      "grantRole(bytes32,address)": {
        "details": "Grants `role` to `account`. If `account` had not been already granted `role`, emits a {RoleGranted} event. Requirements: - the caller must have ``role``'s admin role."
      },
      "hasRole(bytes32,address)": {
        "details": "Returns `true` if `account` has been granted `role`."
      },
      "isApprovedForAll(address,address)": {
        "details": "See {IERC721-isApprovedForAll}."
      },
      "name()": {
        "details": "See {IERC721Metadata-name}."
      },
      "ownerOf(uint256)": {
        "details": "See {IERC721-ownerOf}."
      },
      "renounceRole(bytes32,address)": {
        "details": "Revokes `role` from the calling account. Roles are often managed via {grantRole} and {revokeRole}: this function's purpose is to provide a mechanism for accounts to lose their privileges if they are compromised (such as when a trusted device is misplaced). If the calling account had been granted `role`, emits a {RoleRevoked} event. Requirements: - the caller must be `account`."
      },
      "revokeRole(bytes32,address)": {
        "details": "Revokes `role` from `account`. If `account` had been granted `role`, emits a {RoleRevoked} event. Requirements: - the caller must have ``role``'s admin role."
      },
      "safeTransferFrom(address,address,uint256)": {
        "details": "See {IERC721-safeTransferFrom}."
      },
      "safeTransferFrom(address,address,uint256,bytes)": {
        "details": "See {IERC721-safeTransferFrom}."
      },
      "setApprovalForAll(address,bool)": {
        "details": "See {IERC721-setApprovalForAll}."
      },
      "supportsInterface(bytes4)": {
        "details": "See {IERC165-supportsInterface}. Time complexity O(1), guaranteed to always use less than 30 000 gas."
      },
      "symbol()": {
        "details": "See {IERC721Metadata-symbol}."
      },
      "tokenByIndex(uint256)": {
        "details": "See {IERC721Enumerable-tokenByIndex}."
      },
      "tokenOfOwnerByIndex(address,uint256)": {
        "details": "See {IERC721Enumerable-tokenOfOwnerByIndex}."
      },
      "tokenURI(uint256)": {
        "details": "See {IERC721Metadata-tokenURI}."
      },
      "totalSupply()": {
        "details": "See {IERC721Enumerable-totalSupply}."
      },
      "transferFrom(address,address,uint256)": {
        "details": "See {IERC721-transferFrom}."
      }
    },
    "version": 1
  },
  "userdoc": {
    "kind": "user",
    "methods": {},
    "version": 1
  }
}